:100000000C943E010C9466010C9466010C946601FC
:100010000C9466010C9466010C9466010C94A5087E
:100020000C9466010C9466010C9466010C946601B4
:100030000C9466010C9466010C9466010C946601A4
:100040000C945B080C9466010C9427090C9401092C
:100050000C9466010C9466010C9466010C94660184
:100060000C9466010C9466014F746D656E61004BD3
:100070006F646F767969207A616D6F6B20676F743A
:100080006F762E2056766564697465206B6F643ACE
:10009000004B6F6479206E6520736F7670616461C8
:1000A0007975742E204F746D656E612E004B6F64F0
:1000B00020697A6D656E656E206920736F68726164
:1000C0006E656E207620454550524F4D2100506F91
:1000D00076746F72697465204E4F565949206B6F64
:1000E000643A0056766564697465204E4F565949E6
:1000F000206B6F643A004B6F64206E6576657265A5
:100100006E2E204F746D656E612E005676656469A3
:1001100074652074656B75736863686969206B6FBB
:1001200064202823202D206F746D656E61293A00AC
:100130000A2D2D2D20536D656E61206B6F6461203B
:100140002D2D2D000A212121205342524F53204BA7
:100150004F44413A207465706572206B6F64203D96
:100160002030303030202121210056766F642073FA
:1001700062726F7368656E2E2027232720706F646C
:10018000727961643A20005A616D6F6B20736E6FF3
:100190007661207A61706572742E20567665646986
:1001A0007465206B6F643A005A616D6F6B204F5419
:1001B0004B5259542E2E2E000A446F7374757020C2
:1001C00072617A72657368656E2100426C6F6B694B
:1001D000726F766B6120736E796174612E20567632
:1001E0006564697465206B6F643A00424C4F4B49FB
:1001F000524F564B4121205369676E616C697A6199
:10020000636979612E000A4E657665726E796920A0
:100210006B6F642E20506F7079746B61200000004A
:100220000000240027002A00000000002300260010
:10023000290000000008000201000003040700007C
:1002400000000000000001020408102040800102AC
:1002500004081020010204081020000000002500FE
:1002600028002B0004040404040404040202020213
:1002700002020303030303030200590911241FBEF2
:10028000CFEFD8E0DEBFCDBF11E0A0E0B1E0E4EAFF
:10029000F9E102C005900D92A833B107D9F722E029
:1002A000A8E3B1E001C01D92AB36B207E1F711E05F
:1002B000CEE3D1E004C02197FE010E94AB0CCD3308
:1002C000D107C9F70E94E7090C94D00C0C940000E8
:1002D00096E0899FD0011124A450BE4F90967C9344
:1002E0006E935F9791E091969C939197E09169024C
:1002F000F0916A0290916802992339F0309751F099
:10030000811108C0809118020994309719F05C9609
:100310008C91FACF0895833081F028F4813099F0E0
:100320008230A9F008958730A9F08830C9F0843070
:10033000B1F4809180008F7D03C0809180008F7721
:1003400080938000089584B58F7784BD089584B527
:100350008F7DFBCF8091B0008F778093B0000895A0
:100360008091B0008F7DF9CFCF93DF93282F30E0BD
:10037000F901EE5CFD4F8491F901EA5BFD4FD491E8
:10038000F901EC59FD4FC491CC23A1F081110E94D9
:100390008B01EC2FF0E0EE0FFF1FE85DFD4FA59104
:1003A000B491EC91ED2381E090E009F480E0DF91DD
:1003B000CF91089580E090E0FACF862F0C94B4019D
:1003C0001F93CF93DF93282F30E0F901EE5CFD4FB0
:1003D0008491F901EA5BFD4FD491F901EC59FD4F8D
:1003E000C491CC23A9F0162F81110E948B01EC2F10
:1003F000F0E0EE0FFF1FE65AFD4FA591B4918FB7C5
:10040000F894EC91111108C0D095DE23DC938FBFD6
:10041000DF91CF911F910895DE2BF8CF862F642FA7
:100420000C94E001CF93DF9390E0FC01EA5BFD4F79
:1004300024918C599D4FFC0184918823C9F090E050
:10044000880F991FFC01E25EFD4FA591B491FC015C
:10045000E65AFD4FC591D49161110DC09FB7F89434
:100460008C91209582238C938881282328839FBF99
:10047000DF91CF910895623051F49FB7F8943C9189
:10048000822F809583238C93E8812E2BEFCF8FB71B
:10049000F894EC912E2B2C938FBFEACF4F925F9262
:1004A0006F927F928F929F92AF92BF92CF92DF9284
:1004B000EF92FF920F931F93CF938C014A015B0140
:1004C000809100018A3099F08F3F09F48EC0CF915E
:1004D0001F910F91FF90EF90DF90CF90BF90AF9062
:1004E0009F908F907F906F905F904F900895E8E776
:1004F000F2E0C491C7FDEBCF61E08AE00E941202F6
:100500002801712C612CCC23E9F0980150E040E0E7
:10051000C23009F0D9C028013A0160E970ED83E0EA
:1005200090E00E94810C69017A0181E0C81AD1082B
:10053000E108F1088FEFC816D104E104F10409F0D5
:100540000CF403C168E478EE81E090E0A30192012D
:100550000E94810C69017A0181E0C81AD108E10882
:10056000F108CC2309F40FC1C23009F002C18FEFAA
:10057000C816D104E104F10409F00CF402C164E2EC
:1005800074EF80E090E0A30192010E94810C690168
:100590007A0181E0C81AD108E108F10885E090915C
:1005A000B100987F892B8093B1002FEF3FEFA90115
:1005B00081149104A104B10409F00AC1C13009F405
:1005C000A2C0C23009F4B1C0C11181CFC7BC209311
:1005D000560130935701409358015093590180912F
:1005E0006E00826080936E0072CF8AE0809300017B
:1005F000E8E7F2E0C491CF3F09F469CFC13021F1BF
:1006000050F0C23009F43EC0C7FD61CF61E08AE01E
:100610000E9412027ACF14BC15BC84B5826084BDDE
:1006200085B5816085BDEEE6F2E0E491F0E0EE0F85
:10063000FF1FE65AFD4F85919491E0E5F2E0E491C9
:10064000E0934D01C0E058CF1092800010928100DD
:100650008091810088608093810080918100816019
:1006600080938100EEE6F2E0E491F0E0EE0FFF1FF0
:10067000E65AFD4F85919491E0E5F2E0E491E09334
:100680004C013ACF1092B0001092B1008091B000AE
:1006900082608093B0008091B10081608093B1004E
:1006A000EEE6F2E0E491F0E0EE0FFF1FE65AFD4FB8
:1006B0008591949190934B0180934A01E0E5F2E09B
:1006C000E491E093490118CF60E072E18AE790E09D
:1006D0000E94810C69017A0181E0C81AD108E10801
:1006E000F108C13009F061CF80918100887F81607D
:1006F000809381002FEF3FEFA90181149104A104A1
:10070000B10409F065C0D0928900C092880020939E
:1007100052013093530140935401509355018091FD
:100720006F00826080936F00D2CEC092B30020939E
:100730004E0130934F0140935001509351018091ED
:100740007000826080937000C2CE83E028CF62E1A7
:100750007AE780E090E0A30192010E94810C690198
:100760007A0181E0C81AD108E108F108C1E086E009
:1007700016CF8FEFC816D104E104F10409F03CF75D
:10078000C1E084E00CCF93E08FEFC816D104E10400
:10079000F10489F084F062E17AE780E090E0A3015F
:1007A00092010E94810C69017A0181E0C81AD10886
:1007B000E108F10894E085B5887F892B85BD2FEF8E
:1007C0003FEFA90181149104A104B10409F4FECE04
:1007D000D801AA0FBB1FA50194010E94A00C28EE0E
:1007E00033E040E050E00E945F0CE8CE862F642F9B
:1007F0000C9412023FB7F894809145019091460104
:10080000A0914701B091480126B5A89B05C02F3F94
:1008100019F00196A11DB11D3FBFBA2FA92F982F26
:100820008827BC01CD01620F711D811D911D42E021
:10083000660F771F881F991F4A95D1F708958F92E9
:100840009F92AF92BF92CF92DF92EF92FF924B01B5
:100850005C010E94FA036B017C010E94FA036C198F
:100860007D098E099F09683E734081059105A8F3B3
:1008700021E0821A9108A108B10888EEC80E83E031
:10088000D81EE11CF11C81149104A104B10429F7C4
:10089000FF90EF90DF90CF90BF90AF909F908F90A0
:1008A00008952FB7F89460914101709142018091B1
:1008B0004301909144012FBF08950F931F93CF934D
:1008C000DF93C82FD62F86E0C89FF0011124E45093
:1008D000FE4F11A2878D90A181309105F1F058F063
:1008E00082309105F1F1039709F440C0DF91CF9177
:1008F0001F910F9108956623C9F361E070E08C2F7A
:100900000E9468010E945104609354027093550242
:100910008093560290935702E9CF0E9451040091B0
:100920005402109155022091560230915702AB01AA
:10093000BC01401B510B620B730B809166029091BE
:100940006702B0E0A0E084179507A607B70748F450
:1009500062E070E08C2FDF91CF911F910F910C948A
:10096000680163E070E0D111C1CFF4CF70E060E0C6
:10097000F1CF6F927F928F929F92AF92BF92CF9260
:10098000DF92EF92FF920F931F93CF93DF9381E05B
:10099000809368020E9451040091580210915902FC
:1009A00020915A0230915B02AB01BC01401B510BFC
:1009B000620B730B8091640290916502B0E0A0E03D
:1009C00084179507A607B70708F014C1C0E0809107
:1009D0006202C81760F4E0915E02F0915F02EC0FD2
:1009E000F11D62E080810E941202CF5FF0CF712C76
:1009F000812C912C5401839480916302781608F025
:100A00005FC0072D10E0E0916002F0916102E00FFD
:100A1000F11F61E080810E941202E0916002F0917A
:100A20006102E00FF11F60E080810E94E001D501CA
:100A3000C401072C04C0880F991FAA1FBB1F0A946A
:100A4000D2F76C017C01E094F094612C80916202F9
:100A50006816F8F4C62DD0E0E0915E02F0915F02D6
:100A6000EC0FFD1F80810E94B4012496CC0FDD1F86
:100A7000C450DE4F892B41F4888199818C299D29AE
:100A8000998388836394E2CF888199818E219F2105
:100A9000F7CFE0916002F0916102E00FF11F61E099
:100AA00080810E94E0018091600290916102080FB4
:100AB000191F60E0F80180810E94120273949CCF9C
:100AC000CCEFD1E0FE018FEF9FEF278D30A1232BDC
:100AD00021F4148E968F858F11A2369622E0E8338A
:100AE000F20799F7F12C96E0D92E80916202F81660
:100AF00008F050C0E12C0F2D10E0000F111F0C5F0B
:100B00001D4F20916302E21608F042C0F801608197
:100B100071810E2C02C0769567950A94E2F7F29ED9
:100B2000900111242E0D311DECEFF1E080E0458D98
:100B3000568D2417350709F461C08F5F36968A30C9
:100B4000B1F760FF23C0ECEFF1E090E080E0448D6E
:100B5000411117C0E0915C02F0915D02E20FF31FBA
:100B60004081D89EF001D99EF00D1124E450FE4F33
:100B7000448F368F258F10A2178E61E00E945D048E
:100B800005C0019636968A30910509F7E394B9CFEE
:100B9000F394ABCF10E089A18111182F2696F2E0D3
:100BA000C833DF07C1F70E94510460935802709365
:100BB000590280935A0290935B021123D9F08091DD
:100BC0001D028823B9F080911B0290911C020197AD
:100BD00089F480911802DF91CF911F910F91FF90BE
:100BE000EF90DF90CF90BF90AF909F908F907F90CD
:100BF0006F9008951092680280E0EDCF6170BECFD3
:100C00009091000189130BC0E8E7F2E0E4919FEFB7
:100C100090930001E13049F028F0E23061F060E0AB
:100C20000C94E00110926E00FACF90916F009D7FBE
:100C300090936F00F4CF909170009D7F909370001F
:100C400091E09093B0009091B100987F9460909360
:100C5000B1001092B300E3CFAF92BF92CF92DF9278
:100C6000EF92FF920F931F93CF93DF936C017B0161
:100C70008B01040F151FEB015E01AE18BF08C017F2
:100C8000D10759F06991D601ED91FC910190F08165
:100C9000E02DC6010995892B79F7C501DF91CF9128
:100CA0001F910F91FF90EF90DF90CF90BF90AF908A
:100CB0000895FC01538D448D252F30E0842F90E062
:100CC000821B930B541710F0CF9608950197089547
:100CD000FC01918D828D981761F0A28DAE0FBF2F10
:100CE000B11D5D968C91928D9F5F9F73928F90E066
:100CF00008958FEF9FEF0895FC01918D828D9817D5
:100D000031F0828DE80FF11D858D90E008958FEF11
:100D10009FEF0895FC01918D228D892F90E0805CDA
:100D20009F4F821B91098F73992708958FE591E05A
:100D30000E948A0621E0892B09F420E0822F089581
:100D400080E090E0892B29F00E94960681110C9496
:100D500000000895FC01A48DA80FB92FB11DA35A5E
:100D6000BF4F2C91848D90E001968F739927848FCB
:100D7000A689B7892C93A089B1898C9183708064EE
:100D80008C93938D848D981306C00288F389E02D8F
:100D900080818F7D80830895EF92FF920F931F9340
:100DA000CF93DF93EC0181E0888F9B8D8C8D98131E
:100DB0001AC0E889F989808185FF15C09FB7F8942A
:100DC000EE89FF896083E889F98980818370806476
:100DD00080839FBF81E090E0DF91CF911F910F91C1
:100DE000FF90EF900895F62E0B8D10E00F5F1F4FD0
:100DF0000F731127E02E8C8D8E110CC00FB607FCDF
:100E0000FACFE889F989808185FFF5CFCE010E946C
:100E1000AA06F1CFEB8DEC0FFD2FF11DE35AFF4F2A
:100E2000F0829FB7F8940B8FEA89FB8980818062FA
:100E3000CFCF0F931F93CF93DF938C01D0E0C0E00F
:100E4000F801EC0FFD1F6491662341F08FE591E0FE
:100E50000E94CC06892B11F02196F2CFCE01DF91B2
:100E6000CF911F910F910895CF93DF93EC01888D5F
:100E70008823B9F0AA89BB89E889F9898C9185FD15
:100E800003C0808186FD0DC00FB607FCF7CF8C91A3
:100E900085FFF2CF808185FFEDCFCE010E94AA06AB
:100EA000E9CFDF91CF9108954AEF50E060E070E024
:100EB0008CE291E00E944E0264E071E080E090E0FC
:100EC0000E941F048AE00C94000646E950E060E0AE
:100ED00070E08CED95E00E944E0264EB70E080E0E3
:100EE00090E00E941F044CE251E060E070E084EC6E
:100EF00099E00E944E0260E471E080E090E00E9480
:100F00001F048AE00C94000689E00E94B40161E0AD
:100F1000019709F060E08DE00C94E00160E08BE067
:100F20000E94E00161E08CE00E94E00110923E012D
:100F30001092390108958F929F92AF92BF920F93B2
:100F40001F93CF93DF93CDB7DEB7A1970FB6F89479
:100F5000DEBF0FBECDBF19A2423008F44AE08E01B9
:100F60000F5D1F4F842E912CB12CA12CA501940153
:100F70000E945F0CE62FB901CA01EA3044F5E05D3A
:100F8000D801EE938D01232B242B252B79F790E0AC
:100F900080E0109769F0FD0101900020E9F731979A
:100FA000AF014A1B5B0BBD018FE591E00E942C064F
:100FB000A1960FB6F894DEBF0FBECDBFDF91CF91E3
:100FC0001F910F91BF90AF909F908F900895E95C13
:100FD000D7CF42E050E060E371E08FE591E00C9400
:100FE0002C06CF93DF930E941907EC010E94E907BA
:100FF0008C0F9D1FDF91CF910895EF92FF921F9369
:10100000CF93DF937C01C0E00E9484070E94B90463
:10101000D82F882359F18A3211F0833259F488E6A7
:1010200090E00E94F10780E0DF91CF911F91FF9047
:10103000EF90089580ED8D0F8A30C0F442E350E0C8
:1010400060E070E080ED97E00E944E0211E01C0F1E
:10105000F701EC0FF11DD083F701E10FF11D1082B4
:101060006AE28FE591E00E94CC06C12FC43061F6A0
:101070000E94E90781E0D8CFFF920F931F93CF938F
:10108000DF930AE511E0D0E0C0E0F801F1908F01B4
:10109000CE010E94490CF81621F06F2DCE010E945E
:1010A000510C2196C430D10581F7DF91CF911F916A
:1010B0000F91FF9008951F920F920FB60F92112477
:1010C0002F933F938F939F93AF93BF938091410151
:1010D00090914201A0914301B091440130914001AF
:1010E00023E0230F2D3758F50196A11DB11D209344
:1010F00040018093410190934201A0934301B0933A
:1011000044018091450190914601A0914701B09121
:1011100048010196A11DB11D8093450190934601A0
:10112000A0934701B0934801BF91AF919F918F91D8
:101130003F912F910F900FBE0F901F90189526E8AA
:10114000230F0296A11DB11DD2CF1F920F920FB691
:101150000F9211242F933F934F935F936F937F933D
:101160008F939F93AF93BF93EF93FF9380914E0123
:1011700090914F01A0915001B0915101892B8A2B80
:101180008B2BD1F190914901E0914A01F0914B01F3
:1011900080818927808380914E0190914F01A09199
:1011A0005001B0915101181619061A061B069CF43D
:1011B00080914E0190914F01A0915001B091510149
:1011C0000197A109B10980934E0190934F01A0931B
:1011D0005001B0935101FF91EF91BF91AF919F9159
:1011E0008F917F916F915F914F913F912F910F90D0
:1011F0000FBE0F901F901895809100010E9400066D
:10120000EACF1F920F920FB60F9211242F933F93A4
:101210004F935F936F937F938F939F93AF93BF93FE
:10122000EF93FF938FE591E00E94AA06FF91EF9163
:10123000BF91AF919F918F917F916F915F914F91EE
:101240003F912F910F900FBE0F901F9018951F92F6
:101250000F920FB60F9211242F938F939F93EF93BA
:10126000FF93E0916F01F09170018081E091750131
:10127000F091760182FD1BC09081809178018F5F93
:101280008F7320917901821741F0E0917801F0E0AD
:10129000E15AFE4F958F80937801FF91EF919F91D6
:1012A0008F912F910F900FBE0F901F9018958081F6
:1012B000F4CF109262011092610188EE93E0A0E0F9
:1012C000B0E08093630190936401A0936501B093B3
:1012D000660188E191E09093600180935F0185EC65
:1012E00090E090936C0180936B0184EC90E090937C
:1012F0006E0180936D0180EC90E09093700180937B
:101300006F0181EC90E0909372018093710182EC07
:1013100090E0909374018093730186EC90E0909339
:1013200076018093750110927801109279011092E4
:101330007A0110927B011092FE011092020210922B
:101340000102109203028AE291E09093FD018093E2
:10135000FC01E8E1F2E010821482138215823696D5
:1013600082E0E435F807B9F784E091E090935F02FA
:1013700080935E0281E091E090936102809360022D
:1013800084E08093620283E08093630288E091E0CE
:1013900090935D0280935C028AE090E090936502F6
:1013A0008093640284EF91E09093670280936602D9
:1013B00010926A0210926902109258021092590219
:1013C00010925A0210925B02109268020895CF9315
:1013D000DF93CDB7DEB72F970FB6F894DEBF0FBE01
:1013E000CDBF789484B5826084BD84B5816084BDAE
:1013F00085B5826085BD85B5816085BD80916E00B3
:10140000816080936E0010928100809181008260E3
:101410008093810080918100816080938100809120
:1014200080008160809380008091B100846080930F
:10143000B1008091B00081608093B00080917A000B
:10144000846080937A0080917A00826080937A0031
:1014500080917A00816080937A0080917A00806820
:1014600080937A001092C10060E089E00E9412022D
:1014700061E08AE00E94120261E08BE00E941202A9
:1014800061E08CE00E94120261E08DE00E94120295
:10149000E0916F01F091700182E08083E0916B0137
:1014A000F0916C011082E0916D01F0916E018FEC72
:1014B000808310927701E0917301F091740186E0CE
:1014C0008083E0917101F09172018081806180835D
:1014D000E0917101F0917201808188608083E091D8
:1014E0007101F0917201808180688083E0917101C7
:1014F000F091720180818F7D808382E390E09093F0
:101500006502809364029AE5E92E91E0F92E10E0DD
:1015100000E0C8010E94490C90ED980F9A3008F045
:101520004FC0F70181937F010F5F1F4F04301105FA
:1015300081F781E010925E01811108C063E371E0E0
:101540008AE591E00E94C90C0E943C080E948E0727
:101550008FE690E00E94F10700E010E00E9484070F
:101560000E94B904F82E882309F458C042E350E0E1
:1015700060E070E080ED97E00E944E02FAE2FF1218
:101580005CC010923F0180E391E00E94F1078BE084
:1015900091E00E94F107CE010B960E94FD0788237F
:1015A000E9F16AE571E0CE010B960E94C00C892B2F
:1015B00049F086EF90E00E94F1070E9454072EC088
:1015C00080E0B8CF83EE90E00E94F107CE0106964E
:1015D0000E94FD07882311F18EEC90E00E94F10734
:1015E000CE0101960E94FD078823C1F0BE016F5F06
:1015F0007F4FCE0106960E94C00C892BD9F4BE0104
:101600006A5F7F4F8AE591E00E94C90C0E943C0806
:101610008DEA90E00E94F1070E946507011511050F
:1016200009F49CCF0E949606882309F497CF0E9464
:10163000000094CF81E990E0BECF23E2F21252C0C5
:1016400010923E011092390160913F01FF24F39402
:10165000F60EF0923F0184E08F15B0F563E371E080
:101660008AE591E00E94C90C0E943C0810923E015C
:101670001092390184E491E00E94F10783E0F82E92
:1016800061E08BE00E94E00148E750E060E070E03C
:1016900080ED97E00E944E0260EA70E080E090E00A
:1016A0000E941F0460E08BE00E94E00160EA70E0AD
:1016B00080E090E00E941F04FA94F110E1CF0E94B4
:1016C0008E0710923F01AACF8AE691E00E94190787
:1016D0006F2D70E090E080E04AE00E949B070E943E
:1016E000E9079CCF80ED8F0D8A3008F097CF1092DC
:1016F0003F01E0913E01E43090F481E08E0F809351
:101700003E01F0E0E75CFE4FF082E82FF0E0E75C9E
:10171000FE4F10826AE28FE591E00E94CC06809134
:101720003E01843009F07ACF6AE571E089E391E007
:101730000E94C00C892B29F588EB91E00E94F107EB
:101740001092380160E08CE00E94E00161E08BE0E3
:101750000E94E0010E94650788EA91E00E94F1077B
:1017600062EE74E080E090E00E941F040E948E0709
:1017700087E891E00E94F10710923E011092390132
:101780004DCF60913801FF24F394F60EF0923801AA
:1017900086E092E00E9419076F2D70E090E080E0F3
:1017A0004AE00E949B076FE28FE591E00E94CC0621
:1017B0004AE063E070E080E090E00E949B070E94B6
:1017C000E9070E94540760E08CE00E94E00160E5B8
:1017D00070E080E090E00E941F0461E08CE00E94D5
:1017E000E00160E570E080E090E00E941F0460E0AE
:1017F0008CE00E94E00160E570E080E090E00E94F3
:101800001F0461E08CE00E94E00160E570E080E090
:1018100090E00E941F0480913801833008F4ACCF1F
:101820008BEE91E00E94F1070E9451046B017C0154
:101830000E9451046C197D098E099F09603177421D
:1018400081059105F8F461E08CE00E94E00140E040
:1018500050E0BA0188EE93E00E944E026CE271E023
:1018600080E090E00E941F0460E08CE00E94E001B4
:101870008AE00E9400066CE271E080E090E00E9445
:101880001F04D6CF109238010E948E078BEC91E096
:1018900071CFF999FECF92BD81BDF89A992780B595
:1018A0000895262FF999FECF1FBA92BD81BD20BDA4
:1018B0000FB6F894FA9AF99A0FBE01960895A1E22C
:1018C0001A2EAA1BBB1BFD010DC0AA1FBB1FEE1FBA
:1018D000FF1FA217B307E407F50720F0A21BB30B05
:1018E000E40BF50B661F771F881F991F1A9469F781
:1018F00060957095809590959B01AC01BD01CF01DD
:101900000895052E97FB1EF400940E94980C57FD35
:1019100007D00E945F0C07FC03D04EF40C94980C87
:1019200050954095309521953F4F4F4F5F4F08950B
:1019300090958095709561957F4F8F4F9F4F08953B
:101940000E94B10CA59F900DB49F900DA49F800D97
:10195000911D11240895EE0FFF1F0590F491E02DC5
:101960000994A29FB001B39FC001A39F700D811D78
:101970001124911DB29F700D811D1124911D089598
:10198000FB01DC018D91019080190110D9F3990BB5
:101990000895FB01DC0101900D920020E1F708950C
:0419A000F894FFCFE9
:1019A400FF0607080203040531323334353637386D
:1019B400392A302300000000CC062C0659063407CF
:1019C4008A0668067C0600000000F6030E02DD01AC
:0819D4000D0A00303030300034
:00000001FF
